S019000054656D7065726174757265204D657465722E7372656360
S11300000C942A000C9447000C9447000C9447006D
S11300100C9447000C9447000C9447000C94470040
S11300200C9447000C9447000C9447000C94470030
S11300300C9447000C9447000C9447000C94470020
S11300400C94CB010C9447000C9447000C9447008B
S11300500C94470011241FBECFE5D8E0DEBFCDBF0E
S113006010E0A0E6B0E0E8ECF9E002C005900D92E3
S1130070AA36B107D9F720E0AAE6B0E001C01D9284
S1130080AC36B207E1F70E9440010C94E2040C94F0
S1130090000041E060E082E40E94620283EF91E0AC
S11300A00197F1F700C0000040E060E082E40E94A4
S11300B0620283EF91E00197F1F700C00000089518
S11300C0CF93C82F482F42954F7060E084E40E947C
S11300D0360340E062E082E40E9462020E9449002A
S11300E04C2F60E084E40E94360340E062E082E446
S11300F00E9462020E94490089EF90E00197F1F7A3
S113010000C00000CF9108958FE493EC0197F1F7BC
S113011000C0000040E060E084E40E94D20240E0BD
S113012060E082E40E94F20140E061E082E40E9427
S1130130F20140E062E082E40E94F20140E061E00A
S113014082E40E94620282E00E94600083EC99E0F3
S11301500197F1F700C0000088E20E94600089EF77
S113016090E00197F1F700C000008EE00E9460006B
S113017089EF90E00197F1F700C0000081E00E9450
S1130180600083EC99E00197F1F700C0000086E07D
S11301900E94600089EF90E00197F1F700C0000031
S11301A00895CF93C82F482F42954F7060E084E4A0
S11301B00E94360341E062E082E40E9462020E94EF
S11301C049004C2F60E084E40E94360341E062E081
S11301D082E40E9462020E94490089EF90E0019744
S11301E0F1F700C00000CF910895CF93DF93EC01A5
S11301F003C00E94D100219688818111FACFDF913A
S1130200CF91089581E00E94600083EC99E001970A
S1130210F1F700C00000089540E00E94F201089543
S113022041E00E946202089540E00E946202089543
S1130230CF93C62F41E0682F81E40E94F20141E090
S11302406C2F81E40E94F2010E94A001CF910895D5
S11302500E94B601BC01990F880B990B0E94C1033F
S11302602AE037ED43E25BE30E94250420E030E01E
S113027048EC52E40E9425040E948903CB010895AE
S11302800E94840062E080E00E94180165E081E43D
S11302900E940C010E94020180E690E00E94F50099
S11302A080E10E942801EC018436910524F165E087
S11302B081E40E941401CE018456910964E670E041
S11302C00E94BA04262F6AE070E00E94BA04C62F86
S11302D0D82F162F222321F080E3820F0E94D10011
S11302E0112321F080E38C0F0E94D10080E38D0F55
S11302F00E94D1001BC065E081E40E94100184E6E5
S113030090E08C1B9D0B6AE070E00E94BA04C62F3B
S1130310D82F8DE20E94D100CC2321F080E38C0FF2
S11303200E94D10080E38D0F0E94D1002FEF89E657
S113033098E1215080409040E1F700C00000AACF2E
S113034087B18F7B87B987B18F7787B986B180688A
S113035086B987B18F7D87B986B18E7F86B986B11C
S1130360826086B986B1846086B9089597B1907E1B
S113037097B997B1892B87B986B1806486B9349BC4
S1130380FECF86B1806186B924B185B190E0982F03
S11303908827822B08951F920F920FB60F92112473
S11303A02F933F934F935F936F937F938F939F9379
S11303B0AF93BF93EF93FF93E0916A00F0916B00CA
S11303C00995FF91EF91BF91AF919F918F917F918B
S11303D06F915F914F913F912F910F900FBE0F90AE
S11303E01F901895823419F118F4813439F0089566
S11303F08334B1F1843409F44CC0089541110BC025
S11304002AB381E090E002C0880F991F6A95E2F751
S1130410822B8ABB08952AB381E090E002C0880F42
S1130420991F6A95E2F7809582238ABB089541114A
S11304300BC027B381E090E002C0880F991F6A9532
S1130440E2F7822B87BB089527B381E090E002C0D6
S1130450880F991F6A95E2F78095822387BB0895D8
S113046041110BC024B381E090E002C0880F991FB2
S11304706A95E2F7822B84BB089524B381E090E06F
S113048002C0880F991F6A95E2F78095822384BB86
S1130490089541110BC021B381E090E002C0880FA0
S11304A0991F6A95E2F7822B81BB089521B381E0FD
S11304B090E002C0880F991F6A95E2F78095822325
S11304C081BB0895823419F118F4813439F0089508
S11304D08334B1F1843409F44CC00895413059F4A3
S11304E02BB381E090E002C0880F991F6A95E2F770
S11304F0822B8BBB08952BB381E090E002C0880F60
S1130500991F6A95E2F7809582238BBB0895413049
S113051059F428B381E090E002C0880F991F6A95CE
S1130520E2F7822B88BB089528B381E090E002C0F3
S1130530880F991F6A95E2F78095822388BB0895F6
S1130540413059F425B381E090E002C0880F991F2F
S11305506A95E2F7822B85BB089525B381E090E08C
S113056002C0880F991F6A95E2F78095822385BBA4
S11305700895413059F422B381E090E002C0880F1D
S1130580991F6A95E2F7822B82BB089522B381E01A
S113059090E002C0880F991F6A95E2F78095822344
S11305A082BB0895823401F118F4813439F008953E
S11305B0833481F1843409F443C0089561110AC07D
S11305C0411104C08AB38F608ABB08958AB3807FC7
S11305D08ABB0895411104C08AB3806F8ABB089511
S11305E08AB38F708ABB089561110AC0411104C097
S11305F087B38F6087BB089587B3807F87BB0895D7
S1130600411104C087B3806F87BB089587B38F708F
S113061087BB089561110AC0411104C084B38F607F
S113062084BB089584B3807F84BB0895411104C0C2
S113063084B3806F84BB089584B38F7084BB0895A2
S113064061110AC0411104C081B38F6081BB089558
S113065081B3807F81BB0895411104C081B3806F51
S113066081BB089581B38F7081BB08958234D9F022
S113067018F4813431F00895833439F18434B9F1B4
S11306800895611107C08BB3807F8BBB8BB3482B5C
S11306904BBB08954295407F8BB38F708BBB8BB35C
S11306A0482B4BBB0895611107C088B3807F88BB7A
S11306B088B3482B48BB08954295407F88B38F7018
S11306C088BB88B3482B48BB0895611107C085B324
S11306D0807F85BB85B3482B45BB08954295407FF9
S11306E085B38F7085BB85B3482B45BB08956111D5
S11306F007C082B3807F82BB82B3482B42BB08957C
S11307004295407F82B38F7082BB82B3482B42BB39
S113071008950E9490036894B1110C941F040895E5
S11307200E94040488F09F5798F0B92F9927B75175
S1130730B0F0E1F0660F771F881F991F1AF0BA9581
S1130740C9F714C0B13091F00E941E04B1E00895BD
S11307500C941E04672F782F8827B85F39F0B93FAF
S1130760CCF3869577956795B395D9F73EF4909534
S11307708095709561957F4F8F4F9F4F0895E894B2
S113078009C097FB3EF490958095709561957F4FD5
S11307908F4F9F4F9923A9F0F92F96E9BB27939583
S11307A0F695879577956795B795F111F8CFFAF493
S11307B0BB0F11F460FF1BC06F5F7F4F8F4F9F4FC4
S11307C016C0882311F096E911C0772321F09EE822
S11307D0872F762F05C0662371F096E8862F70E088
S11307E060E02AF09A95660F771F881FDAF7880F62
S11307F09695879597F9089557FD9058440F551F7E
S113080059F05F3F71F04795880F97FB991F61F08E
S11308109F3F79F087950895121613061406551F05
S1130820F2CF4695F1DF08C0161617061806991F71
S1130830F1CF86957105610508940895E894BB2766
S113084066277727CB0197F908950E9438040C9402
S1130850A9040E949B0438F00E94A20420F095236E
S113086011F00C9492040C94980411240C941F0419
S11308700E94FC0370F3959FC1F3950F50E0551F40
S1130880629FF001729FBB27F00DB11D639FAA27E1
S1130890F00DB11DAA1F649F6627B00DA11D661F30
S11308A0829F2227B00DA11D621F739FB00DA11D51
S11308B0621F839FA00D611D221F749F3327A00D0B
S11308C0611D231F849F600D211D822F762F6A2FA7
S11308D011249F5750409AF0F1F088234AF0EE0F0C
S11308E0FF1FBB1F661F771F881F91505040A9F739
S11308F09E3F510580F00C9492040C941F045F3FBA
S1130900E4F3983ED4F3869577956795B795F79574
S1130910E7959F5FC1F7FE2B880F911D96958795EC
S113092097F9089597F99F6780E870E060E008956B
S11309309FEF80EC089500240A94161617061806F3
S11309400906089500240A941216130614060506CF
S11309500895092E0394000C11F4882352F0BB0F60
S113096040F4BF2B11F460FF04C06F5F7F4F8F4FC3
S11309709F4F089597FB072E16F4009407D077FD38
S113098009D00E94CE0407FC05D03EF490958195D1
S11309909F4F0895709561957F4F0895AA1BBB1BC7
S11309A051E107C0AA1FBB1FA617B70710F0A61B6B
S11309B0B70B881F991F5A95A9F780959095BC018C
S10B09C0CD010895F894FFCF66
S10D09C854656D702863293D00009A
S9030000FC
