:100000000C942A000C9469060C9490060C94B70684
:100010000C9447000C9447000C9447000C94470044
:100020000C9447000C9447000C9447000C94470034
:100030000C9447000C9447000C9447000C94470024
:100040000C949A030C9447000C9447000C944700BE
:100050000C94470011241FBECFE5D8E0DEBFCDBF12
:1000600010E0A0E6B0E0E2E7F0E102C005900D92FA
:10007000AA38B107D9F720E0AAE8B0E001C01D9284
:10008000A239B207E1F70E940D030C9437080C94D3
:10009000000040E060E083E40E94C10340E061E0D2
:1000A00083E40E94C10340E062E083E40E94C10354
:1000B00040E063E083E40E94C10341E064E083E444
:1000C0000E94C10341E065E083E40E94C10341E076
:1000D00066E083E40E94C10341E067E083E40E949C
:1000E000C10364E083E40E94B50565E083E40E94F7
:1000F000B50566E083E40E94B50567E083E40E94ED
:10010000B5050895CF92DF92EF92FF920F931F9360
:10011000CF93DF93CDB7DEB760970FB6F894DEBF0D
:100120000FBECDBF80E1E2E6F0E0DE011196019066
:100130000D928A95E1F7C12CD12CFF24F394EE2483
:10014000EA943EC041E060E083E40E94310441E073
:1001500061E083E40E94310441E062E083E40E94B4
:10016000310441E063E083E40E94310440E06C2DFF
:1001700083E40E94310400E010E01AC064E0600FE4
:1001800083E40E94A104F82E811110C0C601880FDB
:10019000991F880F991F21E030E02C0F3D1F820F1F
:1001A000931FFC01E00FF11FE08005C00F5F1F4FA0
:1001B000043011051CF3FF2041F03FEFC31AD30AAE
:1001C00084E0C816D1040CF4BDCF8E2D60960FB616
:1001D000F894DEBF0FBECDBFDF91CF911F910F917D
:1001E000FF90EF90DF90CF90089541E060E082E4CF
:1001F0000E9431048FE99FE00197F1F700C00000F1
:1002000040E060E082E40E9431048FE99FE00197C2
:10021000F1F700C000000895CF93C82F482F4295F2
:100220004F7061E084E40E94620540E062E082E495
:100230000E9431040E94F5004C2F61E084E40E948A
:10024000620540E062E082E40E9431040E94F50011
:100250008FEC97E00197F1F700C00000CF9108956F
:100260002FEF81EE94E0215080409040E1F700C0F4
:10027000000040E061E084E40E94FE0440E060E0B1
:1002800082E40E94C10340E061E082E40E94C10375
:1002900040E062E082E40E94C10340E061E082E469
:1002A0000E94310482E00E940C018FE19EE40197DC
:1002B000F1F700C0000088E20E940C018FEC97E08B
:1002C0000197F1F700C000008EE00E940C018FEC56
:1002D00097E00197F1F700C0000081E00E940C0157
:1002E0008FE19EE40197F1F700C0000086E00E94D4
:1002F0000C018FEC97E00197F1F700C00000089522
:10030000CF93C82F482F42954F7061E084E40E943C
:10031000620541E062E082E40E9431040E94F5003F
:100320004C2F61E084E40E94620541E062E082E4D7
:100330000E9431040E94F5008FEC97E00197F1F7DD
:1003400000C00000CF910895CF93DF93EC0103C06C
:100350000E948001219688818111FACFDF91CF918F
:10036000089581E00E940C018FE19EE40197F1F76E
:1003700000C0000008959FEF980F923078F4662334
:1003800069F0613158F4813029F48FE7860F0E94BB
:100390000C0104C08FEB860F0E940C018FEC97E0DC
:1003A0000197F1F700C00000089540E00E94C103EA
:1003B000089541E00E943104089540E00E94310414
:1003C00008950F931F93CF93DF93D82FC62F8A01E1
:1003D00041E062E084E40E94C1030E94EC05B801A0
:1003E00080E00E94540662E080E00E94F00541E057
:1003F0006D2F81E40E94C10341E06C2F81E40E94D3
:10040000C1030E946F03DF91CF911F910F91089557
:100410000E948503BC01990F880B990B0E94160757
:100420002AE037ED43E25BE30E947A0720E030E008
:1004300048EC52E40E947A070E94DE06CB01089540
:100440001F93CF93DF9300D01F92CDB7DEB72FEF6E
:1004500031EE84E0215030408040E1F700C00000E0
:100460000E94B10119821A821B8282E790E00E94E9
:10047000A40161E082E00E94BB010E9482009FEF24
:1004800021EE34E0915020403040E1F700C0000000
:1004900010E017C08F3F51F0E1E0F0E0EC0FFD1FDE
:1004A000E10FF11D80830E9480011F5F0E94820086
:1004B0009FEF21EE34E0915020403040E1F700C042
:1004C00000008D3311F0133028F389818D3279F5D6
:1004D0001330C9F48A8190E0C0979C01220F331F2A
:1004E000880F991F880F991F880F991F820F931FDC
:1004F0002B8130E020533109820F931F90936100CC
:100500008093600007C08A8190E0C097909361005B
:1005100080936000209160003091610084E690E05B
:10052000821B930B909361008093600052C0133044
:1005300031F590E0C09724E6289FA001299F500D37
:1005400011242A8130E0C901C097BC01660F771FD2
:100550009C01220F331F220F331F220F331FCB01A9
:10056000820F931F840F951F2B8130E02053310998
:10057000820F931F909361008093600020C012301F
:10058000C1F490E0C0979C01220F331F880F991F80
:10059000880F991F880F991F820F931F2A8130E0BF
:1005A00020533109820F931F909361008093600064
:1005B00006C090E0C09790936100809360008091A6
:1005C0006000909161008C599F4F909361008093DF
:1005D00060000F900F900F90DF91CF911F910895C1
:1005E000653671056CF0681779072CF465E081E4D5
:1005F0000E94D901089565E081E40E94DD0108951B
:10060000861797072CF465E081E40E94D9010895CC
:1006100065E081E40E94DD0108950E9430010E949E
:10062000490040E252E062E080E00E94E10165E0C2
:1006300081E40E94D5010E94B10181E890E00E940E
:10064000A40180E10E940802EC01609160007091B9
:1006500061000E94F002C436D10504F1CE01845637
:10066000910964E670E00E940F08262F6AE070E0AE
:100670000E940F08C62FD82F162F222321F080E3C7
:10068000820F0E948001112321F080E38C0F0E94D1
:10069000800180E38D0F0E94800117C084E690E006
:1006A0008C1B9D0B6AE070E00E940F08C62FD82FAC
:1006B0008DE20E948001CC2321F080E38C0F0E9408
:1006C000800180E38D0F0E9480012FEF89E698E181
:1006D000215080409040E1F700C00000ACCF87B1CE
:1006E0008F7B87B987B18F7787B986B1806886B9E4
:1006F00087B18F7D87B986B18E7F86B986B18260DA
:1007000086B986B1846086B9089597B1907E97B90D
:1007100097B1892B87B986B1806486B9349BFECFA7
:1007200086B1806186B924B185B190E0982F882781
:10073000822B08951F920F920FB60F9211242F93C0
:100740003F934F935F936F937F938F939F93AF9359
:10075000BF93EF93FF93E0918A00F0918B0009958E
:10076000FF91EF91BF91AF919F918F917F916F9189
:100770005F914F913F912F910F900FBE0F901F905F
:100780001895823419F118F4813439F008958334BE
:10079000B1F1843409F44CC0089541110BC02AB35F
:1007A00081E090E002C0880F991F6A95E2F7822BE2
:1007B0008ABB08952AB381E090E002C0880F991F98
:1007C0006A95E2F7809582238ABB089541110BC098
:1007D00027B381E090E002C0880F991F6A95E2F785
:1007E000822B87BB089527B381E090E002C0880F79
:1007F000991F6A95E2F78095822387BB089541117E
:100800000BC024B381E090E002C0880F991F6A9565
:10081000E2F7822B84BB089524B381E090E002C00C
:10082000880F991F6A95E2F78095822384BB08950B
:1008300041110BC021B381E090E002C0880F991FE5
:100840006A95E2F7822B81BB089521B381E090E0A5
:1008500002C0880F991F6A95E2F78095822381BBB9
:100860000895823419F118F4813439F008958334ED
:10087000B1F1843409F44CC00895413059F42BB3DC
:1008800081E090E002C0880F991F6A95E2F7822B01
:100890008BBB08952BB381E090E002C0880F991FB5
:1008A0006A95E2F7809582238BBB0895413059F415
:1008B00028B381E090E002C0880F991F6A95E2F7A3
:1008C000822B88BB089528B381E090E002C0880F96
:1008D000991F6A95E2F78095822388BB089541307D
:1008E00059F425B381E090E002C0880F991F6A9502
:1008F000E2F7822B85BB089525B381E090E002C02A
:10090000880F991F6A95E2F78095822385BB089529
:10091000413059F422B381E090E002C0880F991F62
:100920006A95E2F7822B82BB089522B381E090E0C2
:1009300002C0880F991F6A95E2F78095822382BBD7
:1009400008958234E9F018F4813431F055C08334CD
:1009500059F18434E9F150C049B381E090E09C0141
:10096000062E02C0220F331F0A94E2F7842F90E074
:100970008223932302C0959587956A95E2F708959F
:1009800046B381E090E09C01062E02C0220F331F87
:100990000A94E2F7842F90E08223932302C0959576
:1009A00087956A95E2F7089543B381E090E09C0152
:1009B000062E02C0220F331F0A94E2F7842F90E024
:1009C0008223932302C0959587956A95E2F708954F
:1009D00040B381E090E09C01062E02C0220F331F3D
:1009E0000A94E2F7842F90E08223932302C0959526
:1009F00087956A95E2F7089580E00895823401F1C1
:100A000018F4813439F00895833481F1843409F481
:100A100043C0089561110AC0411104C08AB38F60B8
:100A20008ABB08958AB3807F8ABB0895411104C0B0
:100A30008AB3806F8ABB08958AB38F708ABB08958A
:100A400061110AC0411104C087B38F6087BB08954C
:100A500087B3807F87BB0895411104C087B3806F3F
:100A600087BB089587B38F7087BB089561110AC053
:100A7000411104C084B38F6084BB089584B3807F28
:100A800084BB0895411104C084B3806F84BB089572
:100A900084B38F7084BB089561110AC0411104C0F2
:100AA00081B38F6081BB089581B3807F81BB08953E
:100AB000411104C081B3806F81BB089581B38F70F1
:100AC00081BB08958234D9F018F4813431F008954F
:100AD000833439F18434B9F10895611107C08BB3BF
:100AE000807F8BBB8BB3482B4BBB08954295407FD7
:100AF0008BB38F708BBB8BB3482B4BBB08956111AD
:100B000007C088B3807F88BB88B3482B48BB089553
:100B10004295407F88B38F7088BB88B3482B48BB11
:100B20000895611107C085B3807F85BB85B3482BCD
:100B300045BB08954295407F85B38F7085BB85B3D3
:100B4000482B45BB0895611107C082B3807F82BBEB
:100B500082B3482B42BB08954295407F82B38F7089
:100B600082BB82B3482B42BB08958234A1F018F4B3
:100B7000813431F008958334C9F0843411F108953B
:100B80002BB381E090E002C0880F991F6A95E2F7CD
:100B9000822B8BBB089528B381E090E002C0880FC0
:100BA000991F6A95E2F7822B88BB089525B381E0EF
:100BB00090E002C0880F991F6A95E2F7822B85BBEF
:100BC000089522B381E090E002C0880F991F6A95D2
:100BD000E2F7822B82BB08958FB780688FBF08959C
:100BE000813061F120F0823009F44FC00895613006
:100BF00069F028F06230C1F0633079F01BC085B72E
:100C00008E7F85BF85B78D7F85BF14C085B7816016
:100C100085BF85B78D7F85BF0DC085B78E7F85BFAA
:100C200085B7826085BF06C085B7816085BF85B7FF
:100C3000826085BF8BB780648BBF0895613069F097
:100C400028F06230C1F0633079F01BC085B78B7F2C
:100C500085BF85B7877F85BF14C085B7846085BF92
:100C600085B7877F85BF0DC085B78B7F85BF85B76B
:100C7000886085BF06C085B7846085BF85B78860FA
:100C800085BF8BB780688BBF0895623031F06330C9
:100C900039F484B78F7B84BF03C084B7806484BF7A
:100CA0008BB780628BBF0895813049F018F0823095
:100CB00059F0089570939100609390000895709397
:100CC0008F0060938E00089570938D0060938C0068
:100CD00008951F920F920FB60F9211242F933F93F6
:100CE0004F935F936F937F938F939F93AF93BF9334
:100CF000EF93FF93E0919000F09191000995FF919F
:100D0000EF91BF91AF919F918F917F916F915F9183
:100D10004F913F912F910F900FBE0F901F901895FC
:100D20001F920F920FB60F9211242F933F934F9360
:100D30005F936F937F938F939F93AF93BF93EF9343
:100D4000FF93E0918E00F0918F000995FF91EF9154
:100D5000BF91AF919F918F917F916F915F914F91D3
:100D60003F912F910F900FBE0F901F9018951F92DB
:100D70000F920FB60F9211242F933F934F935F93CF
:100D80006F937F938F939F93AF93BF93EF93FF9353
:100D9000E0918C00F0918D000995FF91EF91BF914A
:100DA000AF919F918F917F916F915F914F913F9103
:100DB0002F910F900FBE0F901F9018950E94E5067F
:100DC0006894B1110C94740708950E94590788F033
:100DD0009F5798F0B92F9927B751B0F0E1F0660FFF
:100DE000771F881F991F1AF0BA95C9F714C0B13040
:100DF00091F00E947307B1E008950C947307672F78
:100E0000782F8827B85F39F0B93FCCF3869577956E
:100E10006795B395D9F73EF4909580957095619557
:100E20007F4F8F4F9F4F0895E89409C097FB3EF482
:100E300090958095709561957F4F8F4F9F4F992327
:100E4000A9F0F92F96E9BB279395F69587957795A5
:100E50006795B795F111F8CFFAF4BB0F11F460FF65
:100E60001BC06F5F7F4F8F4F9F4F16C0882311F0BD
:100E700096E911C0772321F09EE8872F762F05C0D1
:100E8000662371F096E8862F70E060E02AF09A956C
:100E9000660F771F881FDAF7880F9695879597F961
:100EA000089557FD9058440F551F59F05F3F71F05A
:100EB0004795880F97FB991F61F09F3F79F08795C1
:100EC0000895121613061406551FF2CF4695F1DF4A
:100ED00008C0161617061806991FF1CF86957105DA
:100EE000610508940895E894BB2766277727CB010E
:100EF00097F908950E948D070C94FE070E94F00751
:100F000038F00E94F70720F0952311F00C94E707C2
:100F10000C94ED0711240C9474070E94510770F390
:100F2000959FC1F3950F50E0551F629FF001729F8E
:100F3000BB27F00DB11D639FAA27F00DB11DAA1F9D
:100F4000649F6627B00DA11D661F829F2227B00DEA
:100F5000A11D621F739FB00DA11D621F839FA00D75
:100F6000611D221F749F3327A00D611D231F849FC5
:100F7000600D211D822F762F6A2F11249F5750401C
:100F80009AF0F1F088234AF0EE0FFF1FBB1F661F97
:100F9000771F881F91505040A9F79E3F510580F060
:100FA0000C94E7070C9474075F3FE4F3983ED4F386
:100FB000869577956795B795F795E7959F5FC1F704
:100FC000FE2B880F911D9695879597F9089597F9AF
:100FD0009F6780E870E060E008959FEF80EC0895DF
:100FE00000240A9416161706180609060895002408
:100FF0000A9412161306140605060895092E039482
:10100000000C11F4882352F0BB0F40F4BF2B11F4F5
:1010100060FF04C06F5F7F4F8F4F9F4F089597FB16
:10102000072E16F4009407D077FD09D00E942308FC
:1010300007FC05D03EF4909581959F4F08957095DB
:1010400061957F4F0895AA1BBB1B51E107C0AA1FE2
:10105000BB1FA617B70710F0A61BB70B881F991F59
:101060005A95A9F780959095BC01CD010895F89403
:02107000FFCFB0
:1010720000013738392F3435362A3132332D413099
:101082003D2B4E6577207468726573682863293A30
:0A1092000054656D702863293D00CD
:00000001FF
